:100000000C942A000C9410070C9445070C947A0762
:100010000C9447000C9447000C9447000C94470044
:100020000C9447000C9447000C94300D0C9447003E
:100030000C94EB0A0C94F60F0C94A7100C94470048
:100040000C9447000C9447000C9447000C94470014
:100050000C94470011241FBECFE5D8E0DEBFCDBF12
:1000600010E0A0E6B0E0EEEFF5E202C005900D92E0
:10007000AE37B107D9F720E0AEE7B0E001C01D927E
:10008000A539B207E1F70E94F0100C94FD120C9410
:100090000000CF93DF9300D000D0CDB7DEB78A83C6
:1000A0006B834C8381E089838B81883008F0A6C004
:1000B0008A81882F90E08330910509F47AC08430DA
:1000C00091050CF099C08230910509F44FC083303E
:1000D00091050CF091C0009719F0019721F18CC0A7
:1000E0008AE390E0FC018081482F8B81282F30E04B
:1000F00081E090E002C0880F991F2A95E2F7809571
:1001000048238C81882F90E02B81222F30E002C081
:10011000880F991F2A95E2F7242F282B8AE390E075
:10012000FC0120836CC087E390E0FC018081482FB4
:100130008B81282F30E081E090E002C0880F991F6A
:100140002A95E2F7809548238C81882F90E02B81B7
:10015000222F30E002C0880F991F2A95E2F7242F42
:10016000282B87E390E0FC01208349C084E390E0E2
:10017000FC018081482F8B81282F30E081E090E0C6
:1001800002C0880F991F2A95E2F7809548238C8139
:10019000882F90E02B81222F30E002C0880F991F1A
:1001A0002A95E2F7242F282B84E390E0FC0120839A
:1001B00026C081E390E0FC018081482F8B81282FAD
:1001C00030E081E090E002C0880F991F2A95E2F7A5
:1001D000809548238C81882F90E02B81222F30E05E
:1001E00002C0880F991F2A95E2F7242F282B81E35C
:1001F00090E0FC01208303C0198201C0198289812B
:100200000F900F900F900F90DF91CF910895CF93A3
:10021000DF9300D00F92CDB7DEB78A836B8381E086
:1002200089838A81882F90E08330910501F18430A1
:1002300091051CF582309105A1F083309105ECF415
:10024000009719F0019739F018C08AE390E02B81EC
:10025000FC01208314C08AE390E02B81FC01208301
:100260000EC08AE390E02B81FC01208308C08AE362
:1002700090E02B81FC01208302C01982000089815B
:100280000F900F900F90DF91CF910895CF93DF9350
:1002900000D000D0CDB7DEB78A836B834C8381E07A
:1002A00089838B81883008F0A6C08A81882F90E0EE
:1002B0008330910509F47AC0843091050CF099C01F
:1002C0008230910509F44FC0833091050CF091C044
:1002D000009719F0019721F18CC08BE390E0FC01AD
:1002E0008081482F8B81282F30E081E090E002C090
:1002F000880F991F2A95E2F7809548238C81882FD3
:1003000090E02B81222F30E002C0880F991F2A95A0
:10031000E2F7242F282B8BE390E0FC0120836CC0B4
:1003200088E390E0FC018081482F8B81282F30E00A
:1003300081E090E002C0880F991F2A95E2F780952E
:1003400048238C81882F90E02B81222F30E002C03F
:10035000880F991F2A95E2F7242F282B88E390E035
:10036000FC01208349C085E390E0FC018081482F97
:100370008B81282F30E081E090E002C0880F991F28
:100380002A95E2F7809548238C81882F90E02B8175
:10039000222F30E002C0880F991F2A95E2F7242F00
:1003A000282B85E390E0FC01208326C082E390E0C7
:1003B000FC018081482F8B81282F30E081E090E084
:1003C00002C0880F991F2A95E2F7809548238C81F7
:1003D000882F90E02B81222F30E002C0880F991FD8
:1003E0002A95E2F7242F282B82E390E0FC0120835A
:1003F00003C0198201C0198289810F900F900F905C
:100400000F90DF91CF910895CF93DF9300D00F929B
:10041000CDB7DEB78A836B8381E089838A81882F99
:1004200090E08330910501F1843091051CF5823014
:100430009105A1F083309105ECF4009719F0019734
:1004400039F018C08BE390E02B81FC01208314C0AD
:1004500088E390E02B81FC0120830EC085E390E0CF
:100460002B81FC01208308C082E390E02B81FC01FA
:10047000208302C01982000089810F900F900F9095
:10048000DF91CF910895CF93DF9300D000D00F92EA
:10049000CDB7DEB78A836B835D834C8381E089832C
:1004A0008B81883008F06DC08A81882F90E083307E
:1004B000910509F44FC0843091050CF060C0823082
:1004C000910599F1833091050CF059C0009719F00E
:1004D0000197B1F054C089E390E0FC018081882F3E
:1004E00090E02B81222F30E002C0959587952A95C8
:1004F000E2F7282F21708C819D81FC01208342C06E
:1005000086E390E0FC018081882F90E02B81222FF0
:1005100030E002C0959587952A95E2F7282F217043
:100520008C819D81FC0120832DC083E390E0FC0140
:100530008081882F90E02B81222F30E002C095959A
:1005400087952A95E2F7282F21708C819D81FC01E7
:10055000208318C080E390E0FC018081882F90E028
:100560002B81222F30E002C0959587952A95E2F7DE
:10057000282F21708C819D81FC01208303C019826A
:1005800001C0198289810F900F900F900F900F90EA
:10059000DF91CF910895CF93DF9300D000D0CDB7F6
:1005A000DEB78A837C836B8381E089838A81882F8D
:1005B00090E08330910549F1843091057CF58230DB
:1005C0009105D1F0833091054CF5009719F0019712
:1005D00051F024C089E390E0FC0120818B819C8153
:1005E000FC0120831DC086E390E0FC0120818B810B
:1005F0009C81FC01208314C083E390E0FC012081F6
:100600008B819C81FC0120830BC080E390E0FC0186
:1006100020818B819C81FC01208302C01982000013
:1006200089810F900F900F900F90DF91CF910895D7
:10063000CF93DF9300D000D0CDB7DEB78A836B8332
:100640004C8381E089838B81883008F0A6C08A8141
:10065000882F90E08330910509F47AC084309105A9
:100660000CF099C08230910509F44FC08330910598
:100670000CF091C0009719F0019721F18CC08BE329
:1006800090E0FC018081482F8B81282F30E081E0B1
:1006900090E002C0880F991F2A95E2F780954823C1
:1006A0008C81882F90E02B81222F30E002C0880FB0
:1006B000991F2A95E2F7242F282B8BE390E0FC0169
:1006C00020836CC088E390E0FC018081482F8B81FF
:1006D000282F30E081E090E002C0880F991F2A9512
:1006E000E2F7809548238C81882F90E02B81222F80
:1006F00030E002C0880F991F2A95E2F7242F282B9B
:1007000088E390E0FC01208349C085E390E0FC0190
:100710008081482F8B81282F30E081E090E002C05B
:10072000880F991F2A95E2F7809548238C81882F9E
:1007300090E02B81222F30E002C0880F991F2A956C
:10074000E2F7242F282B85E390E0FC01208326C0CC
:1007500082E390E0FC018081482F8B81282F30E0DC
:1007600081E090E002C0880F991F2A95E2F78095FA
:1007700048238C81882F90E02B81222F30E002C00B
:10078000880F991F2A95E2F7242F282B82E390E007
:10079000FC01208303C0198201C0198289810F9056
:1007A0000F900F900F90DF91CF910895CF93DF932B
:1007B00000D00F92CDB7DEB78A836B8381E0898347
:1007C0008A81882F90E08330910501F18430910572
:1007D0001CF582309105A1F083309105ECF400976F
:1007E00019F0019739F018C08BE390E02B81FC01E0
:1007F000208314C088E390E02B81FC0120830EC08D
:1008000085E390E02B81FC01208308C082E390E027
:100810002B81FC01208302C01982000089810F9086
:100820000F900F90DF91CF910895CF93DF9300D079
:1008300000D00F92CDB7DEB78D838D8180937E007F
:100840008D81898383E08A831B821C82CE0101967D
:100850000E94640B00000F900F900F900F900F906C
:10086000DF91CF910895CF93DF9300D00F92CDB752
:10087000DEB79B838A83198226C0198280917E000D
:100880004DE750E060E070E00E94D10B20917E00C7
:10089000CE010196BC01822F0E94BE0C08C020919F
:1008A0007E00CE010196BC01822F0E94BE0C898180
:1008B0008130A9F780917E000E94E90C8A819B819A
:1008C00001979B838A838A819B81892BB1F60000E3
:1008D00000000F900F900F90DF91CF910895CF936C
:1008E000DF9300D00F92CDB7DEB78A836B8381E0B0
:1008F00089838A81882F90E08230910509F4EAC0CB
:10090000833091050CF017C1009721F0019709F48D
:1009100071C011C18B81813099F485E590E0FC01B3
:10092000208185E590E02260FC01208385E590E050
:10093000FC01208185E590E02160FC01208343C01B
:100940008B81882399F485E590E0FC01208185E581
:1009500090E02260FC01208385E590E0FC0120818D
:1009600085E590E02E7FFC0120832DC08B818230B5
:1009700099F485E590E0FC01208185E590E0216017
:10098000FC01208385E590E0FC01208185E590E075
:100990002D7FFC01208317C08B81833099F485E57E
:1009A00090E0FC01208185E590E02E7FFC01208312
:1009B00085E590E0FC01208185E590E02D7FFC013C
:1009C000208301C019828981813009F0B6C08FE58A
:1009D00090E0FC0120818FE590E02068FC012083FD
:1009E0008BE590E0FC0120818BE590E02064FC0128
:1009F0002083A3C08B81813099F485E590E0FC01D0
:100A0000208185E590E02860FC01208385E590E069
:100A1000FC01208185E590E02460FC01208343C037
:100A20008B81882399F485E590E0FC01208185E5A0
:100A300090E02860FC01208385E590E0FC012081A6
:100A400085E590E02B7FFC0120832DC08B818230D7
:100A500099F485E590E0FC01208185E590E0246033
:100A6000FC01208385E590E0FC01208185E590E094
:100A7000277FFC01208317C08B81833099F485E5A3
:100A800090E0FC01208185E590E02B7FFC01208334
:100A900085E590E0FC01208185E590E0277FFC0161
:100AA000208301C019828981813009F048C08FE517
:100AB00090E0FC0120818FE590E02068FC0120831C
:100AC0008BE590E0FC0120818BE590E02068FC0143
:100AD000208335C08B81813051F484E590E0FC01A6
:100AE000208184E590E02064FC0120830EC08B818E
:100AF000882351F484E590E0FC01208184E590E0B6
:100B00002F7BFC01208301C0198289818130C9F4C7
:100B10008FE590E0FC0120818FE590E02068FC01EA
:100B200020838BE590E0FC0120818BE590E0206242
:100B3000FC01208306C0198205C0000003C000002C
:100B400001C0000089810F900F900F90DF91CF912D
:100B50000895CF93DF9300D0CDB7DEB78A8381E0CD
:100B600089838A81882F90E082309105E1F083307B
:100B700091051CF5009719F0019759F01EC08BE5FF
:100B800090E0FC0120818BE590E02F7BFC0120832D
:100B900016C08BE590E0FC0120818BE590E02F777B
:100BA000FC0120830CC08BE590E0FC0120818BE5EB
:100BB00090E02F7DFC01208302C019820000898112
:100BC0000F900F90DF91CF910895CF93DF9300D0D6
:100BD0000F92CDB7DEB78A836B8381E089838A81E8
:100BE000882F90E08230910509F4BEC083309105D2
:100BF0000CF0D6C0009721F0019709F45BC0D0C07B
:100C00008B81813099F485E590E0FC01208185E5B8
:100C100090E02260FC01208385E590E0FC012081CA
:100C200085E590E02160FC012083BBC08B81882397
:100C300099F485E590E0FC01208185E590E0226053
:100C4000FC01208385E590E0FC01208185E590E0B2
:100C50002E7FFC012083A5C08B81823099F485E52D
:100C600090E0FC01208185E590E02160FC0120837B
:100C700085E590E0FC01208185E590E02D7FFC0179
:100C800020838FC08B81833099F485E590E0FC014F
:100C9000208185E590E02E7FFC01208385E590E0B2
:100CA000FC01208185E590E02D7FFC01208379C047
:100CB000198277C08B81813099F485E590E0FC0141
:100CC000208185E590E02860FC01208385E590E0A7
:100CD000FC01208185E590E02460FC01208361C057
:100CE0008B81882399F485E590E0FC01208185E5DE
:100CF00090E02860FC01208385E590E0FC012081E4
:100D000085E590E02B7FFC0120834BC08B818230F6
:100D100099F485E590E0FC01208185E590E0246070
:100D2000FC01208385E590E0FC01208185E590E0D1
:100D3000277FFC01208335C08B81833099F485E5C2
:100D400090E0FC01208185E590E02B7FFC01208371
:100D500085E590E0FC01208185E590E0277FFC019E
:100D600020831FC019821DC08B81813051F484E51E
:100D700090E0FC01208184E590E02064FC01208368
:100D800010C08B81882351F484E590E0FC01208120
:100D900084E590E02F7BFC01208303C0198201C011
:100DA000198289810F900F900F90DF91CF91089554
:100DB000CF93DF9300D000D0CDB7DEB78A837C839A
:100DC0006B8381E089838A81882F90E0823091054E
:100DD000B1F083309105D4F4009719F0019741F0F8
:100DE00015C08B819C819093800080937F0010C000
:100DF0008B819C81909382008093810009C08B81BC
:100E00009C81909384008093830002C0198200002B
:100E100089810F900F900F900F90DF91CF910895DF
:100E20001F920F920FB60F9211242F933F934F935F
:100E30005F936F937F938F939F93AF93BF93EF9342
:100E4000FF93CF93DF93CDB7DEB780917F00909172
:100E50008000892B31F080917F0090918000FC010F
:100E600009950000DF91CF91FF91EF91BF91AF9174
:100E70009F918F917F916F915F914F913F912F91B2
:100E80000F900FBE0F901F9018951F920F920FB6E4
:100E90000F9211242F933F934F935F936F937F9300
:100EA0008F939F93AF93BF93EF93FF93CF93DF9372
:100EB000CDB7DEB78091810090918200892B31F00F
:100EC0008091810090918200FC0109950000DF91E2
:100ED000CF91FF91EF91BF91AF919F918F917F91B2
:100EE0006F915F914F913F912F910F900FBE0F9097
:100EF0001F9018951F920F920FB60F9211242F93E7
:100F00003F934F935F936F937F938F939F93AF9391
:100F1000BF93EF93FF93CF93DF93CDB7DEB780916D
:100F2000830090918400892B31F08091830090910F
:100F30008400FC0109950000DF91CF91FF91EF91B2
:100F4000BF91AF919F918F917F916F915F914F91E1
:100F50003F912F910F900FBE0F901F901895CF9338
:100F6000DF9300D00F92CDB7DEB78A836B8381E029
:100F7000898341E06B818A810E944900898381E0F5
:100F80008093850089810F900F900F90DF91CF9112
:100F90000895CF93DF9300D000D0CDB7DEB78A831A
:100FA0006B834C8381E0898380918500813039F4A3
:100FB0004C816B818A810E944601898301C019821C
:100FC00089810F900F900F900F90DF91CF9108952E
:100FD000CF93DF9300D0CDB7DEB78A8381E08983DA
:100FE0008DE290E0FC0120818DE290E02F7DFC01FC
:100FF00020838DE290E0FC0120818DE290E028606A
:10100000FC0120838DE290E0FC0120818DE290E0E4
:101010002460FC01208341E065E081E00E944900FA
:1010200040E066E081E00E94490041E067E081E045
:101030000E94490041E064E081E00E94490041E0F3
:1010400067E081E00E9446018DE290E0FC01208192
:101050008DE290E02061FC0120838DE290E0FC01B4
:1010600020818DE290E02E7FFC0120838DE290E0D4
:10107000FC0120818DE290E02D7FFC0120838EE237
:1010800090E0FC0120818EE290E02E7FFC01208325
:101090008A818330B0F58DE290E0FC018081882F59
:1010A00090E09C012C7F33278A81882F90E0837009
:1010B0009927282B392B8DE290E0FC018081982F15
:1010C000822F292F282B8DE290E0FC0120838A813A
:1010D000843048F08EE290E0FC0120818EE290E0C6
:1010E0002160FC0120838DE290E0FC0120818DE2F3
:1010F00090E02064FC01208310928700109286000B
:1011000001C0198289810F900F90DF91CF910895CE
:10111000CF93DF930F92CDB7DEB781E089838DE265
:1011200090E0FC0120818DE290E02F7DFC01208386
:101130008DE290E0FC0120818DE290E02860FC01CE
:1011400020838DE290E0FC0120818DE290E024601C
:10115000FC01208340E065E081E00E94490041E01D
:1011600066E081E00E94490040E067E081E00E9483
:10117000490040E064E081E00E9449008DE290E097
:10118000FC0120818DE290E02F7EFC0120838DE226
:1011900090E0FC0120818DE290E02064FC0120833E
:1011A000109289001092880089810F90DF91CF9171
:1011B0000895CF93DF9300D00F92CDB7DEB7898328
:1011C0007B836A838DE290E0FC0120818DE290E0D8
:1011D0002F77FC0120838FE290E02981FC0120839E
:1011E00040E064E081E00E9446018DE290E0FC0175
:1011F00020818DE290E02064FC01208300008EE2DB
:1012000090E0FC018081881F8827881F882F90E04C
:1012100081709927019799F78FE290E0FC01208176
:101220008A819B81FC0120838DE290E0FC0120817A
:101230008DE290E02F7BFC01208341E064E081E0BF
:101240000E94460100000F900F900F90DF91CF9108
:101250000895CF93DF9300D00F92CDB7DEB7898387
:101260007B836A838DE290E0FC0120818DE290E037
:101270002F77FC0120838FE290E02981FC012083FD
:101280008DE290E0FC0120818DE290E02064FC0181
:10129000208300008EE290E0FC018081881F882777
:1012A000881F882F90E081709927019799F78FE226
:1012B00090E0FC0120818A819B81FC0120838DE2EA
:1012C00090E0FC0120818DE290E02F7BFC012083E7
:1012D00000000F900F900F90DF91CF910895CF9362
:1012E000DF9300D00F92CDB7DEB789837B836A830B
:1012F000809160008A3071F58FE590E0FC012081DB
:101300008FE590E02068FC0120838A819B81909387
:101310008700809386008DE290E0FC0120818DE2C1
:1013200090E02068FC0120838FE290E02981FC019D
:10133000208340E064E081E00E94460181E08093E8
:1013400060008DE290E0FC0120818DE290E020645D
:10135000FC01208300000F900F900F90DF91CF9140
:101360000895CF93DF9300D00F92CDB7DEB7898376
:101370007B836A83809160008A3041F58FE590E03D
:10138000FC0120818FE590E02068FC0120838A81A8
:101390009B8190938900809388008DE290E0FC010E
:1013A00020818DE290E02068FC0120831092600093
:1013B0008FE290E02981FC0120838DE290E0FC0126
:1013C00020818DE290E02064FC01208300000F90DA
:1013D0000F900F90DF91CF910895CF93DF93CDB70A
:1013E000DEB7A8970FB6F894DEBF0FBECDBF9A8BBD
:1013F000898B7C8B6B8B1A821982A1C029893A89CF
:1014000089819A81820F931FDC012C918B899C89A1
:10141000BC01822F0E946F0989819A8101969A836B
:10142000898380E090E0A0E8BFE38B839C83AD8359
:10143000BE8320E030E04AEF54E46B817C818D81F3
:101440009E810E946812698F7A8F8B8F9C8F898D05
:101450009A8DAB8DBC8D8F839887A987BA8720E042
:1014600030E040E85FE36F81788589859A850E9446
:10147000E21188232CF481E090E09C878B8754C094
:1014800020E03FEF4FE757E46F81788589859A85A3
:101490000E9463121816D4F520E030E040E251E4D7
:1014A0006B817C818D819E810E9468126D8F7E8F01
:1014B0008F8F98A38D8D9E8DAF8DB8A18D8B9E8BB8
:1014C000AF8BB88F6D897E898F89988D0E94E711C7
:1014D00069A37AA38BA39CA3A9A1BAA1BC87AB875C
:1014E00010C088EC90E09E878D878D859E85019742
:1014F000F1F79E878D8700008B859C8501979C87DF
:101500008B878B859C85892B61F719C06F817885C6
:1015100089859A850E94E7116DA37EA38FA398A762
:10152000EDA1FEA1FC87EB878B859C85988B8F872F
:101530008F8598890197F1F7988B8F87000029890B
:101540003A8989819A81820F931FDC018C918823CB
:1015500009F054CF00000000A8960FB6F894DEBF43
:101560000FBECDBFDF91CF910895CF93DF9300D011
:1015700000D000D0CDB7DEB79C838B837E836D8394
:101580001A82198213C02B813C8189819A81820F32
:10159000931FFC0120818D819E81BC01822F0E94BE
:1015A000B10989819A8101969A8389832B813C8133
:1015B00089819A81820F931FFC018081882319F70A
:1015C0000000000026960FB6F894DEBF0FBECDBF18
:1015D000DF91CF9108951F920F920FB60F921124B1
:1015E0002F933F934F935F936F937F938F939F932B
:1015F000AF93BF93EF93FF93CF93DF93CDB7DEB756
:1016000080916000813049F580918600909187003B
:10161000892B09F442C020918600309187008FE227
:1016200090E0FC018081F90109958DE290E0FC01D8
:1016300020818DE290E02F7BFC0120838DE290E001
:10164000FC0120818DE290E02F77FC01208341E0B6
:1016500064E081E00E94460120C080916000882300
:10166000E1F48DE290E0FC0120818DE290E02F77A3
:10167000FC01208320918800309189008FE290E066
:10168000FC018081F90109958DE290E0FC01208147
:101690008DE290E02F7BFC0120838AE08093600044
:1016A0000000DF91CF91FF91EF91BF91AF919F919A
:1016B0008F917F916F915F914F913F912F910F90FB
:1016C0000FBE0F901F901895CF93DF9300D00F920D
:1016D000CDB7DEB79B838A8381E089838A819B8132
:1016E000FC018081882F90E0892B09F051C08A810C
:1016F0009B81FC018281882F90E0029738F48A81D7
:101700009B81FC01818180938C0002C019820000C2
:101710008981813051F58A819B81FC0183818130EF
:1017200099F48FE590E0FC0120818FE590E020683E
:10173000FC01208389E590E0FC01208189E590E0AF
:101740002260FC01208311C08A819B81FC0183817E
:10175000882351F489E590E0FC01208189E590E03F
:101760002D7FFC01208301C0198283E590E0FC01FC
:10177000208183E590E02860FC01208383E590E0F0
:10178000FC01208183E590E02F7BFC01208302C0D7
:101790001982000089810F900F900F90DF91CF91F7
:1017A0000895CF93DF9300D000D000D0CDB7DEB73F
:1017B0008A834B835C836D837E8381E089838A8106
:1017C000882F90E0892BF9F48B819C81AD81BE81BB
:1017D0008F3F9105A105B10509F098F48CE590E0E3
:1017E0002B81FC01208383E590E0FC018081887FD0
:1017F00090918C00282F292B83E590E0FC01208319
:1018000004C0198202C019820000898126960FB691
:10181000F894DEBF0FBECDBFDF91CF910895CF9377
:10182000DF9300D0CDB7DEB78A8381E089838A81D8
:10183000882F90E0892B51F483E590E0FC01208112
:1018400083E590E0287FFC01208302C0198200001C
:1018500089810F900F90DF91CF910895CF93DF93FF
:1018600000D0CDB7DEB78A8381E089838A81882F53
:1018700090E0892B29F482E590E0FC01108202C0FF
:101880001982000089810F900F90DF91CF91089508
:10189000CF93DF9300D000D0CDB7DEB78A837C83AF
:1018A0006B8381E089838A81882F90E0892B49F4BA
:1018B00082E590E0FC0120818B819C81FC012083EA
:1018C00002C01982000089810F900F900F900F9035
:1018D000DF91CF910895CF93DF9300D000D0CDB7A3
:1018E000DEB78A837C836B8381E089838B819C81D3
:1018F000892B11F419823AC08A81882F90E0892BB4
:1019000099F580918C00813029F48B819C81FC01B8
:1019100010822CC080918C00823031F48B819C81AC
:1019200021E0FC01208322C080918C00833031F4BF
:101930008B819C8128E0FC01208318C080918C0061
:10194000843031F48B819C8120E2FC0120830EC025
:1019500080918C00853031F48B819C812DE7FC01D6
:10196000208304C0198202C01982000089810F906F
:101970000F900F900F90DF91CF910895CF93DF9349
:1019800000D000D0CDB7DEB78A837C836B8381E043
:1019900089838B819C81892B09F419828A81882F04
:1019A00090E0892B61F488E590E0FC0180818695C8
:1019B000282F21708B819C81FC01208302C0198219
:1019C000000089810F900F900F900F90DF91CF91C1
:1019D0000895CF93DF9300D0CDB7DEB78A8381E03F
:1019E00089838A81882F90E0892B51F488E590E0E3
:1019F000FC01208188E590E02260FC01208302C088
:101A00001982000089810F900F90DF91CF91089586
:101A1000CF93DF9300D000D0CDB7DEB78A837C832D
:101A20006B8381E089838B819C81892B19F481E010
:101A300089830EC08A81882F90E0892B39F48B81AD
:101A40009C8190938B0080938A0002C019820000D1
:101A500089810F900F900F900F90DF91CF91089593
:101A60001F920F920FB60F9211242F933F934F9313
:101A70005F936F937F938F939F93AF93BF93EF93F6
:101A8000FF93CF93DF93CDB7DEB780918A0090911B
:101A90008B00892B31F080918A0090918B00FC01A2
:101AA00009950000DF91CF91FF91EF91BF91AF9128
:101AB0009F918F917F916F915F914F913F912F9166
:101AC0000F900FBE0F901F9018952F923F924F923C
:101AD0005F926F927F928F929F92AF92BF92CF92BE
:101AE000DF92EF92FF920F931F93CF93DF9300D07B
:101AF00000D00F92CDB7DEB79D838C8381E08983C0
:101B00008C819D81FC0180819181A281B3814C01F6
:101B10005D01C12CD12C7601282D392D4A2D5B2D4C
:101B20006C2D7D2D8E2D9F2D04E00E94C911222E3B
:101B3000332E442E552E662E772E882E992EA22CCB
:101B4000B32CC42CD52CE62CF72C082D192D20E015
:101B500032E14AE750E060E070E080E090E00E940F
:101B60006C11822E932EA42EB52EC62ED72EE82EC3
:101B7000F92E082D192D2A2D3B2D4C2D5D2D6E2D66
:101B80007F2DC80101979B838A838A819B818F3F28
:101B9000910509F030F489E290E02A81FC0120836C
:101BA00016C080E490E0FC01208180E490E02F7773
:101BB000FC0120838A819B81292F332780E490E0D8
:101BC000FC01208389E290E02A81FC01208380E4EB
:101BD00090E0FC01208180E490E02068FC012083FB
:101BE00080E490E0FC01208180E490E02F7DFC0106
:101BF000208380E490E0FC01208180E490E02F7E4F
:101C0000FC01208380E490E0FC01208180E490E0EE
:101C1000277FFC01208380E490E0FC01208180E4A8
:101C200090E02F7BFC012083109290008C819D819D
:101C3000FC0184818823E1F480E490E0FC012081B0
:101C400080E490E02D7FFC01208380E490E0FC01A3
:101C5000208180E490E02B7FFC0120838AE290E0E9
:101C6000FC0120818AE290E02B7FFC01208395C05B
:101C70008C819D81FC018481813029F58AE290E08C
:101C8000FC0120818AE290E02861FC01208380E44D
:101C900090E0FC01208180E490E02268FC01208338
:101CA00080E490E0FC01208180E490E02B7FFC0147
:101CB00020838AE290E0FC0120818AE290E02B7F81
:101CC000FC0120836AC08C819D81FC01848182306B
:101CD00029F58AE290E0FC0120818AE290E0286107
:101CE000FC01208380E490E0FC01208180E490E00E
:101CF0002468FC01208380E490E0FC01208180E4E2
:101D000090E02D7FFC0120838AE290E0FC0120819D
:101D10008AE290E02B7FFC0120833FC08C819D8173
:101D2000FC018481833099F48AE290E0FC012081F7
:101D30008AE290E02861FC01208380E490E0FC01CD
:101D4000208180E490E02668FC01208326C08C81FD
:101D50009D81FC0184818730F9F48AE290E0FC01E6
:101D600020818AE290E02460FC0120838AE290E0F6
:101D7000FC0120818AE290E02861FC01208380E45C
:101D800090E0FC01208180E490E02668FC01208343
:101D900081E08093900001C019828C819D81FC01BB
:101DA000858180938F008C819D81FC0185818130AC
:101DB00051F48FE590E0FC0120818FE590E02068F0
:101DC000FC0120831AC08C819D81FC0185818823C0
:101DD00099F48AE290E0FC0120818AE290E02F777A
:101DE000FC0120838AE290E0FC0120818AE290E0FD
:101DF0002F7DFC01208301C0198289810F900F90F3
:101E00000F900F900F90DF91CF911F910F91FF9046
:101E1000EF90DF90CF90BF90AF909F908F907F908A
:101E20006F905F904F903F902F900895CF93DF93E6
:101E300000D00F92CDB7DEB79B838A8381E0898380
:101E400000008BE290E0FC0180818295869587708E
:101E5000882F90E081709927019799F780919000E1
:101E60008130E1F480E490E0FC018081382F3F7BF9
:101E70008A819B81892F992786958295880F880F63
:101E8000807C282F207480E490E0232BFC012083A9
:101E90008CE290E02A81FC01208305C08CE290E076
:101EA0002A81FC01208389810F900F900F90DF9190
:101EB000CF910895CF93DF9300D00F92CDB7DEB7C7
:101EC0009B838A8381E089838AE290E0FC01208100
:101ED0008AE290E02061FC01208300008BE290E028
:101EE000FC018081881F8827881F882F90E08170DF
:101EF0009927019799F700008BE290E0FC0180811F
:101F0000829586958770882F90E081709927019738
:101F100099F780919000813041F58A819B81FC0185
:101F2000808191819C013D7F80E490E0FC01808173
:101F3000881F8827881F882F90E0982F8827990F5F
:101F400088279270282B392B8A819B81FC01318351
:101F500020838CE290E0FC018081282F30E08A8190
:101F60009B81FC01318320830BC08CE290E0FC015B
:101F70008081282F30E08A819B81FC01318320837E
:101F800089810F900F900F90DF91CF910895CF939B
:101F9000DF9300D00F92CDB7DEB79B838A8381E0B9
:101FA00089838A819B81892BC9F08AE290E0FC01B8
:101FB00020818AE290E02061FC0120838AE290E0A7
:101FC000FC0120818AE290E02068FC0120838A8164
:101FD0009B81909394008093930001C01982898122
:101FE0000F900F900F90DF91CF9108951F920F9255
:101FF0000FB60F9211242F933F934F935F936F93DC
:102000007F938F939F93AF93BF93EF93FF93CF9360
:10201000DF9300D0CDB7DEB780919300909194000C
:10202000892B09F44FC080919000813069F5898136
:102030009A819C013D7F80E490E0FC018081881FB3
:102040008827881F882F90E0982F8827990F882746
:102050009270822B932B9A83898300008BE290E00D
:10206000FC018081829586958770882F90E0817031
:102070009927019799F78CE290E0FC018081882FE5
:1020800090E09A83898316C000008BE290E0FC0107
:102090008081829586958770882F90E0817099273E
:1020A000019799F78CE290E0FC018081882F90E005
:1020B0009A838983209193003091940089819A8139
:1020C000F901099500000F900F90DF91CF91FF91DA
:1020D000EF91BF91AF919F918F917F916F915F91A0
:1020E0004F913F912F910F900FBE0F901F90189519
:1020F000CF93DF9300D00F92CDB7DEB79B838A8357
:1021000081E089838A819B81892BC9F08AE290E0F2
:10211000FC0120818AE290E02860FC0120838A8112
:102120009B8190939200809391008AE290E0FC0161
:1021300020818AE290E02062FC01208301C01982A4
:1021400089810F900F900F90DF91CF9108951F928A
:102150000F920FB60F9211242F933F938F939F935B
:10216000EF93FF93CF93DF93CDB7DEB780919100CC
:1021700090919200FC01208131818CE290E0FC0181
:10218000208300008BE290E0FC018081829586959F
:1021900086958370882F90E081709927019791F739
:1021A0008BE290E0FC0120818BE290E02064FC0156
:1021B00020838AE290E0FC0120818AE290E02F7D7A
:1021C000FC0120830000DF91CF91FF91EF919F915F
:1021D0008F913F912F910F900FBE0F901F901895E8
:1021E000CF93DF93CDB7DEB7A0970FB6F894DEBFDD
:1021F0000FBECDBF86E0E1E6F0E0DE011296019071
:102200000D928A95E1F782E00E94E807CE010296DE
:102210000E94650D41E062E082E00E94490041E0D9
:1022200067E082E00E94490087E1E7E6F0E0DE0136
:10223000189601900D928A95E1F7198211C0898153
:10224000882F90E09E01285F3F4F820F931FFC0173
:102250008081882F90E00E94160F89818F5F89838B
:102260008981882F90E09E01285F3F4F820F931F46
:10227000FC018081882319F7CE014F960E945A0FE6
:102280008F8D803391F440E062E082E00E9446014D
:1022900040E067E082E00E9446012F8DCE018096EB
:1022A000BC01822F0E94D908E7CF8F8D813321F79F
:1022B00041E062E082E00E94460141E067E082E0A6
:1022C0000E9446012F8DCE018096BC01822F0E9474
:1022D000D908D2CF689401C0E8948F929F92CF938F
:1022E000DF930E947811DF91CF919F908F90089596
:1022F00088249924F401E401B0E49F93AA279A1555
:102300008B049C04ED05FE05CF05D007A10798F4CA
:10231000AD2FDC2FCF2FFE2FE92D982C892E982F53
:10232000872F762F652F542F432F322F2227B85017
:1023300031F7BF9127C01B2EBF91BB27220F331F40
:10234000441F551F661F771F881F991F881C991CE3
:10235000EE1FFF1FCC1FDD1FAA1FBB1F8A149B048B
:10236000EC05FD05CE05DF05A007B10748F08A188A
:102370009B08EC09FD09CE09DF09A00BB10B216018
:102380001A94E1F62EF49401AF01BE01CD01000CC8
:102390000895002E083090F0982F872F762F652F04
:1023A000542F432F322F22270850F4CF220F331FF0
:1023B000441F551F661F771F881F991F0A95B2F784
:1023C000002D08950E94161208F481E008950E94DD
:1023D000421288F09F5798F0B92F9927B751B0F063
:1023E000E1F0660F771F881F991F1AF0BA95C9F799
:1023F00014C0B13091F00E945C12B1E008950C94C9
:102400005C12672F782F8827B85F39F0B93FCCF37B
:10241000869577956795B395D9F73EF49095809515
:10242000709561957F4F8F4F9F4F0895990F0008CA
:10243000550FAA0BE0E8FEEF16161706E807F90796
:10244000C0F012161306E407F50798F0621B730B31
:10245000840B950B39F40A2661F0232B242B252BB2
:1024600021F408950A2609F4A140A6958FEF811D55
:10247000811D089557FD9058440F551F59F05F3F37
:1024800071F04795880F97FB991F61F09F3F79F096
:1024900087950895121613061406551FF2CF469518
:1024A000F1DF08C0161617061806991FF1CF86959A
:1024B0007105610508940895E894BB27662777277E
:1024C000CB0197F908950E94161208F48FEF089532
:1024D0000E947B120C94EC120E94DE1238F00E94D3
:1024E000E51220F0952311F00C94D5120C94DB1218
:1024F00011240C945D120E943A1270F3959FC1F35F
:10250000950F50E0551F629FF001729FBB27F00DA1
:10251000B11D639FAA27F00DB11DAA1F649F6627F6
:10252000B00DA11D661F829F2227B00DA11D621F45
:10253000739FB00DA11D621F839FA00D611D221FFF
:10254000749F3327A00D611D231F849F600D211DE3
:10255000822F762F6A2F11249F5750409AF0F1F066
:1025600088234AF0EE0FFF1FBB1F661F771F881FCF
:1025700091505040A9F79E3F510580F00C94D51220
:102580000C945D125F3FE4F3983ED4F38695779503
:102590006795B795F795E7959F5FC1F7FE2B880F75
:1025A000911D9695879597F9089597F99F6780E80B
:1025B00070E060E008959FEF80EC089500240A9495
:1025C0001616170618060906089500240A9412160E
:1025D0001306140605060895092E0394000C11F441
:1025E000882352F0BB0F40F4BF2B11F460FF04C0EE
:0E25F0006F5F7F4F8F4F9F4F0895F894FFCF7E
:1025FE000A802500000300506C6561736520456EEE
:0E260E00746572206120427574746F6E3A001C
:00000001FF
